{
  "contractName": "Flipcoin",
  "abi": [
    {
      "inputs": [],
      "payable": false,
      "stateMutability": "nonpayable",
      "type": "constructor"
    },
    {
      "anonymous": false,
      "inputs": [
        {
          "indexed": false,
          "internalType": "address",
          "name": "player",
          "type": "address"
        },
        {
          "indexed": false,
          "internalType": "uint256",
          "name": "betValue",
          "type": "uint256"
        },
        {
          "indexed": false,
          "internalType": "bytes32",
          "name": "Id",
          "type": "bytes32"
        },
        {
          "indexed": false,
          "internalType": "bool",
          "name": "result",
          "type": "bool"
        }
      ],
      "name": "EndBetEvent",
      "type": "event"
    },
    {
      "anonymous": false,
      "inputs": [
        {
          "indexed": false,
          "internalType": "string",
          "name": "description",
          "type": "string"
        }
      ],
      "name": "LogNewProvableQuery",
      "type": "event"
    },
    {
      "anonymous": false,
      "inputs": [
        {
          "indexed": false,
          "internalType": "address",
          "name": "player",
          "type": "address"
        },
        {
          "indexed": false,
          "internalType": "uint256",
          "name": "betValue",
          "type": "uint256"
        },
        {
          "indexed": false,
          "internalType": "bytes32",
          "name": "Id",
          "type": "bytes32"
        }
      ],
      "name": "StartBetEvent",
      "type": "event"
    },
    {
      "anonymous": false,
      "inputs": [
        {
          "indexed": false,
          "internalType": "uint256",
          "name": "latestNumber",
          "type": "uint256"
        }
      ],
      "name": "latestNumberEvent",
      "type": "event"
    },
    {
      "constant": true,
      "inputs": [
        {
          "internalType": "address",
          "name": "",
          "type": "address"
        }
      ],
      "name": "balances",
      "outputs": [
        {
          "internalType": "uint256",
          "name": "",
          "type": "uint256"
        }
      ],
      "payable": false,
      "stateMutability": "view",
      "type": "function"
    },
    {
      "constant": true,
      "inputs": [
        {
          "internalType": "bytes32",
          "name": "",
          "type": "bytes32"
        }
      ],
      "name": "betList",
      "outputs": [
        {
          "internalType": "address payable",
          "name": "player",
          "type": "address"
        },
        {
          "internalType": "uint256",
          "name": "betValue",
          "type": "uint256"
        },
        {
          "internalType": "bool",
          "name": "result",
          "type": "bool"
        }
      ],
      "payable": false,
      "stateMutability": "view",
      "type": "function"
    },
    {
      "constant": true,
      "inputs": [],
      "name": "contractBalance",
      "outputs": [
        {
          "internalType": "uint256",
          "name": "",
          "type": "uint256"
        }
      ],
      "payable": false,
      "stateMutability": "view",
      "type": "function"
    },
    {
      "constant": true,
      "inputs": [],
      "name": "latestNumber",
      "outputs": [
        {
          "internalType": "uint256",
          "name": "",
          "type": "uint256"
        }
      ],
      "payable": false,
      "stateMutability": "view",
      "type": "function"
    },
    {
      "constant": true,
      "inputs": [],
      "name": "owner",
      "outputs": [
        {
          "internalType": "address",
          "name": "",
          "type": "address"
        }
      ],
      "payable": false,
      "stateMutability": "view",
      "type": "function"
    },
    {
      "constant": true,
      "inputs": [
        {
          "internalType": "address",
          "name": "",
          "type": "address"
        }
      ],
      "name": "waitingList",
      "outputs": [
        {
          "internalType": "bool",
          "name": "",
          "type": "bool"
        }
      ],
      "payable": false,
      "stateMutability": "view",
      "type": "function"
    },
    {
      "constant": false,
      "inputs": [],
      "name": "payToPlay",
      "outputs": [],
      "payable": true,
      "stateMutability": "payable",
      "type": "function"
    },
    {
      "constant": false,
      "inputs": [],
      "name": "bet",
      "outputs": [],
      "payable": true,
      "stateMutability": "payable",
      "type": "function"
    },
    {
      "constant": false,
      "inputs": [
        {
          "internalType": "bytes32",
          "name": "_myid",
          "type": "bytes32"
        },
        {
          "internalType": "string",
          "name": "_result",
          "type": "string"
        }
      ],
      "name": "__callback",
      "outputs": [],
      "payable": false,
      "stateMutability": "nonpayable",
      "type": "function"
    },
    {
      "constant": false,
      "inputs": [
        {
          "internalType": "bytes32",
          "name": "_queryId",
          "type": "bytes32"
        },
        {
          "internalType": "string",
          "name": "_result",
          "type": "string"
        },
        {
          "internalType": "bytes",
          "name": "_proof",
          "type": "bytes"
        }
      ],
      "name": "__callback",
      "outputs": [],
      "payable": false,
      "stateMutability": "nonpayable",
      "type": "function"
    },
    {
      "constant": false,
      "inputs": [],
      "name": "withDraw",
      "outputs": [],
      "payable": false,
      "stateMutability": "nonpayable",
      "type": "function"
    },
    {
      "constant": false,
      "inputs": [],
      "name": "withdrawAll",
      "outputs": [
        {
          "internalType": "uint256",
          "name": "",
          "type": "uint256"
        }
      ],
      "payable": false,
      "stateMutability": "nonpayable",
      "type": "function"
    }
  ],
  "bytecode": "0x60806040523480156200001157600080fd5b50336000806101000a81548173ffffffffffffffffffffffffffffffffffffffff021916908373ffffffffffffffffffffffffffffffffffffffff16021790555062000067603060f81b6200006d60201b60201c565b62000a91565b600073ffffffffffffffffffffffffffffffffffffffff16600260009054906101000a900473ffffffffffffffffffffffffffffffffffffffff1673ffffffffffffffffffffffffffffffffffffffff161480620000fd57506000620000fb600260009054906101000a900473ffffffffffffffffffffffffffffffffffffffff16620003d360201b60201c565b145b156200011757620001156000620003de60201b60201c565b505b600260009054906101000a900473ffffffffffffffffffffffffffffffffffffffff1673ffffffffffffffffffffffffffffffffffffffff166338cc48316040518163ffffffff1660e01b8152600401602060405180830381600087803b1580156200018257600080fd5b505af115801562000197573d6000803e3d6000fd5b505050506040513d6020811015620001ae57600080fd5b810190808051906020019092919050505073ffffffffffffffffffffffffffffffffffffffff16600160009054906101000a900473ffffffffffffffffffffffffffffffffffffffff1673ffffffffffffffffffffffffffffffffffffffff1614620002fd57600260009054906101000a900473ffffffffffffffffffffffffffffffffffffffff1673ffffffffffffffffffffffffffffffffffffffff166338cc48316040518163ffffffff1660e01b8152600401602060405180830381600087803b1580156200027f57600080fd5b505af115801562000294573d6000803e3d6000fd5b505050506040513d6020811015620002ab57600080fd5b8101908080519060200190929190505050600160006101000a81548173ffffffffffffffffffffffffffffffffffffffff021916908373ffffffffffffffffffffffffffffffffffffffff1602179055505b600160009054906101000a900473ffffffffffffffffffffffffffffffffffffffff1673ffffffffffffffffffffffffffffffffffffffff1663688dcfd7826040518263ffffffff1660e01b815260040180827effffffffffffffffffffffffffffffffffffffffffffffffffffffffffffff19167effffffffffffffffffffffffffffffffffffffffffffffffffffffffffffff19168152602001915050600060405180830381600087803b158015620003b757600080fd5b505af1158015620003cc573d6000803e3d6000fd5b5050505050565b6000813b9050919050565b6000620003f0620003f760201b60201c565b9050919050565b6000806200041f731d3b2638a7cc9f2cb3d298a3da7a90b67e5506ed620003d360201b60201c565b1115620004cb57731d3b2638a7cc9f2cb3d298a3da7a90b67e5506ed600260006101000a81548173ffffffffffffffffffffffffffffffffffffffff021916908373ffffffffffffffffffffffffffffffffffffffff160217905550620004c16040518060400160405280600b81526020017f6574685f6d61696e6e6574000000000000000000000000000000000000000000815250620009c660201b60201c565b60019050620009c3565b6000620004f273c03a2615d5efaf5f49f60b7bb6583eaec212fdf1620003d360201b60201c565b11156200059e5773c03a2615d5efaf5f49f60b7bb6583eaec212fdf1600260006101000a81548173ffffffffffffffffffffffffffffffffffffffff021916908373ffffffffffffffffffffffffffffffffffffffff160217905550620005946040518060400160405280600c81526020017f6574685f726f707374656e330000000000000000000000000000000000000000815250620009c660201b60201c565b60019050620009c3565b6000620005c573b7a07bcf2ba2f2703b24c0691b5278999c59ac7e620003d360201b60201c565b1115620006715773b7a07bcf2ba2f2703b24c0691b5278999c59ac7e600260006101000a81548173ffffffffffffffffffffffffffffffffffffffff021916908373ffffffffffffffffffffffffffffffffffffffff160217905550620006676040518060400160405280600981526020017f6574685f6b6f76616e0000000000000000000000000000000000000000000000815250620009c660201b60201c565b60019050620009c3565b60006200069873146500cfd35b22e4a392fe0adc06de1a1368ed48620003d360201b60201c565b1115620007445773146500cfd35b22e4a392fe0adc06de1a1368ed48600260006101000a81548173ffffffffffffffffffffffffffffffffffffffff021916908373ffffffffffffffffffffffffffffffffffffffff1602179055506200073a6040518060400160405280600b81526020017f6574685f72696e6b656279000000000000000000000000000000000000000000815250620009c660201b60201c565b60019050620009c3565b60006200076b73a2998efd205fb9d4b4963afb70778d6354ad3a41620003d360201b60201c565b1115620008175773a2998efd205fb9d4b4963afb70778d6354ad3a41600260006101000a81548173ffffffffffffffffffffffffffffffffffffffff021916908373ffffffffffffffffffffffffffffffffffffffff1602179055506200080d6040518060400160405280600a81526020017f6574685f676f65726c6900000000000000000000000000000000000000000000815250620009c660201b60201c565b60019050620009c3565b60006200083e736f485c8bf6fc43ea212e93bbf8ce046c7f1cb475620003d360201b60201c565b1115620008a457736f485c8bf6fc43ea212e93bbf8ce046c7f1cb475600260006101000a81548173ffffffffffffffffffffffffffffffffffffffff021916908373ffffffffffffffffffffffffffffffffffffffff16021790555060019050620009c3565b6000620008cb7320e12a1f859b3feae5fb2a0a32c18f5a65555bbf620003d360201b60201c565b111562000931577320e12a1f859b3feae5fb2a0a32c18f5a65555bbf600260006101000a81548173ffffffffffffffffffffffffffffffffffffffff021916908373ffffffffffffffffffffffffffffffffffffffff16021790555060019050620009c3565b6000620009587351efaf4c8b3c9afbd5ab9f4bbc82784ab6ef8faa620003d360201b60201c565b1115620009be577351efaf4c8b3c9afbd5ab9f4bbc82784ab6ef8faa600260006101000a81548173ffffffffffffffffffffffffffffffffffffffff021916908373ffffffffffffffffffffffffffffffffffffffff16021790555060019050620009c3565b600090505b90565b8060039080519060200190620009de929190620009e2565b5050565b828054600181600116156101000203166002900490600052602060002090601f016020900481019282601f1062000a2557805160ff191683800117855562000a56565b8280016001018555821562000a56579182015b8281111562000a5557825182559160200191906001019062000a38565b5b50905062000a65919062000a69565b5090565b62000a8e91905b8082111562000a8a57600081600090555060010162000a70565b5090565b90565b6140ee8062000aa16000396000f3fe6080604052600436106100a75760003560e01c80633e5edbd3116100645780633e5edbd3146103d65780635ae129fe146103e0578063853828b61461046d5780638b7afe2e146104985780638da5cb5b146104c3578063dc34b0aa1461051a576100a7565b80630fdb1c10146100ac57806311610c25146100c357806327dc297e146100cd57806327e235e31461019f57806338bbfa5014610204578063397148d31461036d575b600080fd5b3480156100b857600080fd5b506100c1610545565b005b6100cb610793565b005b3480156100d957600080fd5b5061019d600480360360408110156100f057600080fd5b81019080803590602001909291908035906020019064010000000081111561011757600080fd5b82018360208201111561012957600080fd5b8035906020019184600183028401116401000000008311171561014b57600080fd5b91908080601f016020809104026020016040519081016040528093929190818152602001838380828437600081840152601f19601f820116905080830192505050505050509192919290505050610a59565b005b3480156101ab57600080fd5b506101ee600480360360208110156101c257600080fd5b81019080803573ffffffffffffffffffffffffffffffffffffffff169060200190929190505050610a9c565b6040518082815260200191505060405180910390f35b34801561021057600080fd5b5061036b6004803603606081101561022757600080fd5b81019080803590602001909291908035906020019064010000000081111561024e57600080fd5b82018360208201111561026057600080fd5b8035906020019184600183028401116401000000008311171561028257600080fd5b91908080601f016020809104026020016040519081016040528093929190818152602001838380828437600081840152601f19601f820116905080830192505050505050509192919290803590602001906401000000008111156102e557600080fd5b8201836020820111156102f757600080fd5b8035906020019184600183028401116401000000008311171561031957600080fd5b91908080601f016020809104026020016040519081016040528093929190818152602001838380828437600081840152601f19601f820116905080830192505050505050509192919290505050610ab4565b005b34801561037957600080fd5b506103bc6004803603602081101561039057600080fd5b81019080803573ffffffffffffffffffffffffffffffffffffffff169060200190929190505050610eb9565b604051808215151515815260200191505060405180910390f35b6103de610ed9565b005b3480156103ec57600080fd5b506104196004803603602081101561040357600080fd5b8101908080359060200190929190505050610f10565b604051808473ffffffffffffffffffffffffffffffffffffffff1673ffffffffffffffffffffffffffffffffffffffff16815260200183815260200182151515158152602001935050505060405180910390f35b34801561047957600080fd5b50610482610f67565b6040518082815260200191505060405180910390f35b3480156104a457600080fd5b506104ad6110f4565b6040518082815260200191505060405180910390f35b3480156104cf57600080fd5b506104d86110fa565b604051808273ffffffffffffffffffffffffffffffffffffffff1673ffffffffffffffffffffffffffffffffffffffff16815260200191505060405180910390f35b34801561052657600080fd5b5061052f61111f565b6040518082815260200191505060405180910390f35b60001515600b60003373ffffffffffffffffffffffffffffffffffffffff1673ffffffffffffffffffffffffffffffffffffffff16815260200190815260200160002060009054906101000a900460ff1615151461060b576040517f08c379a00000000000000000000000000000000000000000000000000000000081526004018080602001828103825260108152602001807f5374696c6c2077616974696e672e2e2e0000000000000000000000000000000081525060200191505060405180910390fd5b6000600960003373ffffffffffffffffffffffffffffffffffffffff1673ffffffffffffffffffffffffffffffffffffffff16815260200190815260200160002054116106c0576040517f08c379a00000000000000000000000000000000000000000000000000000000081526004018080602001828103825260148152602001807f4e6f2066756e647320746f20776974686472617700000000000000000000000081525060200191505060405180910390fd5b6000600960003373ffffffffffffffffffffffffffffffffffffffff1673ffffffffffffffffffffffffffffffffffffffff1681526020019081526020016000205490506000600960003373ffffffffffffffffffffffffffffffffffffffff1673ffffffffffffffffffffffffffffffffffffffff168152602001908152602001600020819055503373ffffffffffffffffffffffffffffffffffffffff166108fc829081150290604051600060405180830381858888f1935050505015801561078f573d6000803e3d6000fd5b5050565b66038d7ea4c68000803410156107a857600080fd5b600854341115610803576040517f08c379a00000000000000000000000000000000000000000000000000000000081526004018080602001828103825260348152602001806140866034913960400191505060405180910390fd5b60001515600b60003373ffffffffffffffffffffffffffffffffffffffff1673ffffffffffffffffffffffffffffffffffffffff16815260200190815260200160002060009054906101000a900460ff1615151461086057600080fd5b6001600b60003373ffffffffffffffffffffffffffffffffffffffff1673ffffffffffffffffffffffffffffffffffffffff16815260200190815260200160002060006101000a81548160ff0219169083151502179055506000809050600062030d4090506108d182600183611125565b60068190555060405180606001604052803373ffffffffffffffffffffffffffffffffffffffff16815260200134815260200160001515815250600a6000600654815260200190815260200160002060008201518160000160006101000a81548173ffffffffffffffffffffffffffffffffffffffff021916908373ffffffffffffffffffffffffffffffffffffffff1602179055506020820151816001015560408201518160020160006101000a81548160ff0219169083151502179055509050507f65720fbcd98f1bf95d22c3ec7078ef498c8e50205edf54f028ea8240df15a5c13334600654604051808473ffffffffffffffffffffffffffffffffffffffff1673ffffffffffffffffffffffffffffffffffffffff168152602001838152602001828152602001935050505060405180910390a17fc4dc360d0a9c0677a3379ae0a3d81e887f761e65fdf3d7e00859d1bcd3c473896040518080602001828103825260328152602001806140146032913960400191505060405180910390a1505050565b610a98828260006040519080825280601f01601f191660200182016040528015610a925781602001600182028038833980820191505090505b50610ab4565b5050565b60096020528060005260406000206000915090505481565b610abc6116c0565b73ffffffffffffffffffffffffffffffffffffffff163373ffffffffffffffffffffffffffffffffffffffff1614610af357600080fd5b6000610b008484846119e0565b60ff1614610b0d57610cff565b60006002836040516020018082805190602001908083835b60208310610b485780518252602082019150602081019050602083039250610b25565b6001836020036101000a0380198251168184511680821785525050505050509050019150506040516020818303038152906040528051906020012060001c81610b8d57fe5b0690508060078190555060006007541415610bfc576000600a600086815260200190815260200160002060020160006101000a81548160ff021916908315150217905550600a600085815260200190815260200160002060010154600860008282540192505081905550610cfd565b60016007541415610cfc576001600a600086815260200190815260200160002060020160006101000a81548160ff0219169083151502179055506002600a600086815260200190815260200160002060010154026008600082825403925050819055506002600a6000868152602001908152602001600020600101540260096000600a600088815260200190815260200160002060000160009054906101000a900473ffffffffffffffffffffffffffffffffffffffff1673ffffffffffffffffffffffffffffffffffffffff1673ffffffffffffffffffffffffffffffffffffffff168152602001908152602001600020600082825401925050819055505b5b505b6000600b6000600a600087815260200190815260200160002060000160009054906101000a900473ffffffffffffffffffffffffffffffffffffffff1673ffffffffffffffffffffffffffffffffffffffff1673ffffffffffffffffffffffffffffffffffffffff16815260200190815260200160002060006101000a81548160ff0219169083151502179055507f3268927681ebfd226b1ec82d2a4499abffc9c969993799ba058596a422e2cb116007546040518082815260200191505060405180910390a17f0bf15375620c4ef1c5ed7abe405e0fb986a47a39884fd61f6fd6db8da9b079c1600a600085815260200190815260200160002060000160009054906101000a900473ffffffffffffffffffffffffffffffffffffffff16600a60008681526020019081526020016000206001015485600a600088815260200190815260200160002060020160009054906101000a900460ff16604051808573ffffffffffffffffffffffffffffffffffffffff1673ffffffffffffffffffffffffffffffffffffffff1681526020018481526020018381526020018215151515815260200194505050505060405180910390a1505050565b600b6020528060005260406000206000915054906101000a900460ff1681565b67016345785d8a000080341015610eef57600080fd5b6000341415610efd57600080fd5b3460086000828254019250508190555050565b600a6020528060005260406000206000915090508060000160009054906101000a900473ffffffffffffffffffffffffffffffffffffffff16908060010154908060020160009054906101000a900460ff16905083565b60008060009054906101000a900473ffffffffffffffffffffffffffffffffffffffff1673ffffffffffffffffffffffffffffffffffffffff163373ffffffffffffffffffffffffffffffffffffffff1614610fc257600080fd5b60001515600b60003373ffffffffffffffffffffffffffffffffffffffff1673ffffffffffffffffffffffffffffffffffffffff16815260200190815260200160002060009054906101000a900460ff1615151461101f57600080fd5b600060085411611097576040517f08c379a00000000000000000000000000000000000000000000000000000000081526004018080602001828103825260148152602001807f4e6f2066756e647320746f20776974686472617700000000000000000000000081525060200191505060405180910390fd5b6000600854905060006008819055503373ffffffffffffffffffffffffffffffffffffffff166108fc829081150290604051600060405180830381858888f193505050501580156110ec573d6000803e3d6000fd5b508091505090565b60085481565b6000809054906101000a900473ffffffffffffffffffffffffffffffffffffffff1681565b60075481565b60008083118015611137575060208311155b61114057600080fd5b600a84029350606060016040519080825280601f01601f19166020018201604052801561117c5781602001600182028038833980820191505090505b5090508360f81b8160008151811061119057fe5b60200101907effffffffffffffffffffffffffffffffffffffffffffffffffffffffffffff1916908160001a905350606060206040519080825280601f01601f1916602001820160405280156111f55781602001600182028038833980820191505090505b509050606060206040519080825280601f01601f19166020018201604052801561122e5781602001600182028038833980820191505090505b509050600061123b611b10565b905060208352424118600143034018602084015260208252806020830152606060206040519080825280601f01601f19166020018201604052801561128f5781602001600182028038833980820191505090505b509050886020820152606060086040519080825280601f01601f1916602001820160405280156112ce5781602001600182028038833980820191505090505b5090506112e18260186008846000611e30565b506112ea613f2d565b6040518060800160405280878152602001888152602001868152602001848152509050600061134f6040518060400160405280600681526020017f72616e646f6d0000000000000000000000000000000000000000000000000000815250838c611e8f565b9050606060086040519080825280601f01601f1916602001820160405280156113875781602001600182028038833980820191505090505b50905060208401517f0100000000000000000000000000000000000000000000000000000000000000810460278301537e01000000000000000000000000000000000000000000000000000000000000810460268301537d010000000000000000000000000000000000000000000000000000000000810460258301537c0100000000000000000000000000000000000000000000000000000000810460248301537b01000000000000000000000000000000000000000000000000000000810460238301537a0100000000000000000000000000000000000000000000000000008104602283015379010000000000000000000000000000000000000000000000000081046021830153780100000000000000000000000000000000000000000000000081046020830153506116ad8282856001600481106114c657fe5b60200201516002876000600481106114da57fe5b60200201516040518082805190602001908083835b6020831061151257805182526020820191506020810190506020830392506114ef565b6001836020036101000a038019825116818451168082178552505050505050905001915050602060405180830381855afa158015611554573d6000803e3d6000fd5b5050506040513d602081101561156957600080fd5b81019080805190602001909291905050508760026004811061158757fe5b60200201516040516020018085805190602001908083835b602083106115c2578051825260208201915060208101905060208303925061159f565b6001836020036101000a03801982511681845116808217855250505050505090500184805190602001908083835b6020831061161357805182526020820191506020810190506020830392506115f0565b6001836020036101000a03801982511681845116808217855250505050505090500183815260200182805190602001908083835b6020831061166a5780518252602082019150602081019050602083039250611647565b6001836020036101000a038019825116818451168082178552505050505050905001945050505050604051602081830303815290604052805190602001206121fe565b8199505050505050505050509392505050565b60008073ffffffffffffffffffffffffffffffffffffffff16600260009054906101000a900473ffffffffffffffffffffffffffffffffffffffff1673ffffffffffffffffffffffffffffffffffffffff16148061174857506000611746600260009054906101000a900473ffffffffffffffffffffffffffffffffffffffff1661221a565b145b15611759576117576000612225565b505b600260009054906101000a900473ffffffffffffffffffffffffffffffffffffffff1673ffffffffffffffffffffffffffffffffffffffff166338cc48316040518163ffffffff1660e01b8152600401602060405180830381600087803b1580156117c357600080fd5b505af11580156117d7573d6000803e3d6000fd5b505050506040513d60208110156117ed57600080fd5b810190808051906020019092919050505073ffffffffffffffffffffffffffffffffffffffff16600160009054906101000a900473ffffffffffffffffffffffffffffffffffffffff1673ffffffffffffffffffffffffffffffffffffffff161461193857600260009054906101000a900473ffffffffffffffffffffffffffffffffffffffff1673ffffffffffffffffffffffffffffffffffffffff166338cc48316040518163ffffffff1660e01b8152600401602060405180830381600087803b1580156118bc57600080fd5b505af11580156118d0573d6000803e3d6000fd5b505050506040513d60208110156118e657600080fd5b8101908080519060200190929190505050600160006101000a81548173ffffffffffffffffffffffffffffffffffffffff021916908373ffffffffffffffffffffffffffffffffffffffff1602179055505b600160009054906101000a900473ffffffffffffffffffffffffffffffffffffffff1673ffffffffffffffffffffffffffffffffffffffff1663c281d19e6040518163ffffffff1660e01b815260040160206040518083038186803b1580156119a057600080fd5b505afa1580156119b4573d6000803e3d6000fd5b505050506040513d60208110156119ca57600080fd5b8101908080519060200190929190505050905090565b60007f4c0000000000000000000000000000000000000000000000000000000000000082600081518110611a1057fe5b602001015160f81c60f81b7effffffffffffffffffffffffffffffffffffffffffffffffffffffffffffff1916141580611aa357507f500000000000000000000000000000000000000000000000000000000000000082600181518110611a7357fe5b602001015160f81c60f81b7effffffffffffffffffffffffffffffffffffffffffffffffffffffffffffff191614155b80611acf5750600160ff1682600281518110611abb57fe5b602001015160f81c60f81b60f81c60ff1614155b15611add5760019050611b09565b6000611af2838686611aed612236565b6122d8565b905080611b03576002915050611b09565b60009150505b9392505050565b60008073ffffffffffffffffffffffffffffffffffffffff16600260009054906101000a900473ffffffffffffffffffffffffffffffffffffffff1673ffffffffffffffffffffffffffffffffffffffff161480611b9857506000611b96600260009054906101000a900473ffffffffffffffffffffffffffffffffffffffff1661221a565b145b15611ba957611ba76000612225565b505b600260009054906101000a900473ffffffffffffffffffffffffffffffffffffffff1673ffffffffffffffffffffffffffffffffffffffff166338cc48316040518163ffffffff1660e01b8152600401602060405180830381600087803b158015611c1357600080fd5b505af1158015611c27573d6000803e3d6000fd5b505050506040513d6020811015611c3d57600080fd5b810190808051906020019092919050505073ffffffffffffffffffffffffffffffffffffffff16600160009054906101000a900473ffffffffffffffffffffffffffffffffffffffff1673ffffffffffffffffffffffffffffffffffffffff1614611d8857600260009054906101000a900473ffffffffffffffffffffffffffffffffffffffff1673ffffffffffffffffffffffffffffffffffffffff166338cc48316040518163ffffffff1660e01b8152600401602060405180830381600087803b158015611d0c57600080fd5b505af1158015611d20573d6000803e3d6000fd5b505050506040513d6020811015611d3657600080fd5b8101908080519060200190929190505050600160006101000a81548173ffffffffffffffffffffffffffffffffffffffff021916908373ffffffffffffffffffffffffffffffffffffffff1602179055505b600160009054906101000a900473ffffffffffffffffffffffffffffffffffffffff1673ffffffffffffffffffffffffffffffffffffffff1663abaa5f3e6040518163ffffffff1660e01b815260040160206040518083038186803b158015611df057600080fd5b505afa158015611e04573d6000803e3d6000fd5b505050506040513d6020811015611e1a57600080fd5b8101908080519060200190929190505050905090565b6060600082850190508084511015611e4757600080fd5b600086602001905060008460200190505b868860200101821015611e805781890151808288015250602082019150602081019050611e58565b85935050505095945050505050565b60008073ffffffffffffffffffffffffffffffffffffffff16600260009054906101000a900473ffffffffffffffffffffffffffffffffffffffff1673ffffffffffffffffffffffffffffffffffffffff161480611f1757506000611f15600260009054906101000a900473ffffffffffffffffffffffffffffffffffffffff1661221a565b145b15611f2857611f266000612225565b505b600260009054906101000a900473ffffffffffffffffffffffffffffffffffffffff1673ffffffffffffffffffffffffffffffffffffffff166338cc48316040518163ffffffff1660e01b8152600401602060405180830381600087803b158015611f9257600080fd5b505af1158015611fa6573d6000803e3d6000fd5b505050506040513d6020811015611fbc57600080fd5b810190808051906020019092919050505073ffffffffffffffffffffffffffffffffffffffff16600160009054906101000a900473ffffffffffffffffffffffffffffffffffffffff1673ffffffffffffffffffffffffffffffffffffffff161461210757600260009054906101000a900473ffffffffffffffffffffffffffffffffffffffff1673ffffffffffffffffffffffffffffffffffffffff166338cc48316040518163ffffffff1660e01b8152600401602060405180830381600087803b15801561208b57600080fd5b505af115801561209f573d6000803e3d6000fd5b505050506040513d60208110156120b557600080fd5b8101908080519060200190929190505050600160006101000a81548173ffffffffffffffffffffffffffffffffffffffff021916908373ffffffffffffffffffffffffffffffffffffffff1602179055505b6060600460405190808252806020026020018201604052801561213e57816020015b60608152602001906001900390816121295790505b5090508360006004811061214e57fe5b60200201518160008151811061216057fe5b60200260200101819052508360016004811061217857fe5b60200201518160018151811061218a57fe5b6020026020010181905250836002600481106121a257fe5b6020020151816002815181106121b457fe5b6020026020010181905250836003600481106121cc57fe5b6020020151816003815181106121de57fe5b60200260200101819052506121f4858285612983565b9150509392505050565b8060046000848152602001908152602001600020819055505050565b6000813b9050919050565b600061222f612ee9565b9050919050565b606060038054600181600116156101000203166002900480601f0160208091040260200160405190810160405280929190818152602001828054600181600116156101000203166002900480156122ce5780601f106122a3576101008083540402835291602001916122ce565b820191906000526020600020905b8154815290600101906020018083116122b157829003601f168201915b5050505050905090565b60008060206002876045815181106122ec57fe5b602001015160f81c60f81b60f81c60ff1601604401019050606060206040519080825280601f01601f19166020018201604052801561233a5781602001600182028038833980820191505090505b50905061234c87836020846000611e30565b50600284876040516020018083805190602001908083835b602083106123875780518252602082019150602081019050602083039250612364565b6001836020036101000a038019825116818451168082178552505050505050905001828152602001925050506040516020818303038152906040526040518082805190602001908083835b602083106123f557805182526020820191506020810190506020830392506123d2565b6001836020036101000a038019825116818451168082178552505050505050905001915050602060405180830381855afa158015612437573d6000803e3d6000fd5b5050506040513d602081101561244c57600080fd5b8101908080519060200190929190505050604051602001808281526020019150506040516020818303038152906040528051906020012081805190602001201461249b5760009250505061297b565b606060028860016049860101815181106124b157fe5b602001015160f81c60f81b60f81c60ff16016040519080825280601f01601f1916602001820160405280156124f55781602001600182028038833980820191505090505b50905061250a88604985018351846000611e30565b506125d56002826040518082805190602001908083835b602083106125445780518252602082019150602081019050602083039250612521565b6001836020036101000a038019825116818451168082178552505050505050905001915050602060405180830381855afa158015612586573d6000803e3d6000fd5b5050506040513d602081101561259b57600080fd5b8101908080519060200190929190505050878a60086020880101815181106125bf57fe5b602001015160f81c60f81b60f81c60ff16613440565b6125e5576000935050505061297b565b606060296040519080825280601f01601f19166020018201604052801561261b5781602001600182028038833980820191505090505b50905061263089602086016029846000611e30565b506060604080519080825280601f01601f1916602001820160405280156126665781602001600182028038833980820191505090505b509050600060418451602960208901010101905061268c8b604083036040856000611e30565b5060006002836040518082805190602001908083835b602083106126c557805182526020820191506020810190506020830392506126a2565b6001836020036101000a038019825116818451168082178552505050505050905001915050602060405180830381855afa158015612707573d6000803e3d6000fd5b5050506040513d602081101561271c57600080fd5b8101908080519060200190929190505050905083816040516020018083805190602001908083835b602083106127675780518252602082019150602081019050602083039250612744565b6001836020036101000a0380198251168184511680821785525050505050509050018281526020019250505060405160208183030381529060405280519060200120600460008d81526020019081526020016000205414156127df57600460008c8152602001908152602001600020600090556127ef565b600097505050505050505061297b565b606060496040519080825280601f01601f1916602001820160405280156128255781602001600182028038833980820191505090505b5090506128378d896049846000611e30565b506128e06002826040518082805190602001908083835b60208310612871578051825260208201915060208101905060208303925061284e565b6001836020036101000a038019825116818451168082178552505050505050905001915050602060405180830381855afa1580156128b3573d6000803e3d6000fd5b5050506040513d60208110156128c857600080fd5b810190808051906020019092919050505087866134f0565b6128f55760009850505050505050505061297b565b6005600083815260200190815260200160002060009054906101000a900460ff1661294f576129248d846136ae565b6005600084815260200190815260200160002060006101000a81548160ff0219169083151502179055505b6005600083815260200190815260200160002060009054906101000a900460ff16985050505050505050505b949350505050565b60008073ffffffffffffffffffffffffffffffffffffffff16600260009054906101000a900473ffffffffffffffffffffffffffffffffffffffff1673ffffffffffffffffffffffffffffffffffffffff161480612a0b57506000612a09600260009054906101000a900473ffffffffffffffffffffffffffffffffffffffff1661221a565b145b15612a1c57612a1a6000612225565b505b600260009054906101000a900473ffffffffffffffffffffffffffffffffffffffff1673ffffffffffffffffffffffffffffffffffffffff166338cc48316040518163ffffffff1660e01b8152600401602060405180830381600087803b158015612a8657600080fd5b505af1158015612a9a573d6000803e3d6000fd5b505050506040513d6020811015612ab057600080fd5b810190808051906020019092919050505073ffffffffffffffffffffffffffffffffffffffff16600160009054906101000a900473ffffffffffffffffffffffffffffffffffffffff1673ffffffffffffffffffffffffffffffffffffffff1614612bfb57600260009054906101000a900473ffffffffffffffffffffffffffffffffffffffff1673ffffffffffffffffffffffffffffffffffffffff166338cc48316040518163ffffffff1660e01b8152600401602060405180830381600087803b158015612b7f57600080fd5b505af1158015612b93573d6000803e3d6000fd5b505050506040513d6020811015612ba957600080fd5b8101908080519060200190929190505050600160006101000a81548173ffffffffffffffffffffffffffffffffffffffff021916908373ffffffffffffffffffffffffffffffffffffffff1602179055505b6000600160009054906101000a900473ffffffffffffffffffffffffffffffffffffffff1673ffffffffffffffffffffffffffffffffffffffff16632ef3accc86856040518363ffffffff1660e01b81526004018080602001838152602001828103825284818151815260200191508051906020019080838360005b83811015612c92578082015181840152602081019050612c77565b50505050905090810190601f168015612cbf5780820380516001836020036101000a031916815260200191505b509350505050602060405180830381600087803b158015612cdf57600080fd5b505af1158015612cf3573d6000803e3d6000fd5b505050506040513d6020811015612d0957600080fd5b81019080805190602001909291905050509050823a02670de0b6b3a764000001811115612d3c576000801b915050612ee2565b6060612d4785613ac6565b9050600160009054906101000a900473ffffffffffffffffffffffffffffffffffffffff1673ffffffffffffffffffffffffffffffffffffffff1663c55c1cb68360008985896040518663ffffffff1660e01b8152600401808581526020018060200180602001848152602001838103835286818151815260200191508051906020019080838360005b83811015612dec578082015181840152602081019050612dd1565b50505050905090810190601f168015612e195780820380516001836020036101000a031916815260200191505b50838103825285818151815260200191508051906020019080838360005b83811015612e52578082015181840152602081019050612e37565b50505050905090810190601f168015612e7f5780820380516001836020036101000a031916815260200191505b5096505050505050506020604051808303818588803b158015612ea157600080fd5b505af1158015612eb5573d6000803e3d6000fd5b50505050506040513d6020811015612ecc57600080fd5b8101908080519060200190929190505050925050505b9392505050565b600080612f09731d3b2638a7cc9f2cb3d298a3da7a90b67e5506ed61221a565b1115612fab57731d3b2638a7cc9f2cb3d298a3da7a90b67e5506ed600260006101000a81548173ffffffffffffffffffffffffffffffffffffffff021916908373ffffffffffffffffffffffffffffffffffffffff160217905550612fa26040518060400160405280600b81526020017f6574685f6d61696e6e6574000000000000000000000000000000000000000000815250613b46565b6001905061343d565b6000612fca73c03a2615d5efaf5f49f60b7bb6583eaec212fdf161221a565b111561306c5773c03a2615d5efaf5f49f60b7bb6583eaec212fdf1600260006101000a81548173ffffffffffffffffffffffffffffffffffffffff021916908373ffffffffffffffffffffffffffffffffffffffff1602179055506130636040518060400160405280600c81526020017f6574685f726f707374656e330000000000000000000000000000000000000000815250613b46565b6001905061343d565b600061308b73b7a07bcf2ba2f2703b24c0691b5278999c59ac7e61221a565b111561312d5773b7a07bcf2ba2f2703b24c0691b5278999c59ac7e600260006101000a81548173ffffffffffffffffffffffffffffffffffffffff021916908373ffffffffffffffffffffffffffffffffffffffff1602179055506131246040518060400160405280600981526020017f6574685f6b6f76616e0000000000000000000000000000000000000000000000815250613b46565b6001905061343d565b600061314c73146500cfd35b22e4a392fe0adc06de1a1368ed4861221a565b11156131ee5773146500cfd35b22e4a392fe0adc06de1a1368ed48600260006101000a81548173ffffffffffffffffffffffffffffffffffffffff021916908373ffffffffffffffffffffffffffffffffffffffff1602179055506131e56040518060400160405280600b81526020017f6574685f72696e6b656279000000000000000000000000000000000000000000815250613b46565b6001905061343d565b600061320d73a2998efd205fb9d4b4963afb70778d6354ad3a4161221a565b11156132af5773a2998efd205fb9d4b4963afb70778d6354ad3a41600260006101000a81548173ffffffffffffffffffffffffffffffffffffffff021916908373ffffffffffffffffffffffffffffffffffffffff1602179055506132a66040518060400160405280600a81526020017f6574685f676f65726c6900000000000000000000000000000000000000000000815250613b46565b6001905061343d565b60006132ce736f485c8bf6fc43ea212e93bbf8ce046c7f1cb47561221a565b111561333257736f485c8bf6fc43ea212e93bbf8ce046c7f1cb475600260006101000a81548173ffffffffffffffffffffffffffffffffffffffff021916908373ffffffffffffffffffffffffffffffffffffffff1602179055506001905061343d565b60006133517320e12a1f859b3feae5fb2a0a32c18f5a65555bbf61221a565b11156133b5577320e12a1f859b3feae5fb2a0a32c18f5a65555bbf600260006101000a81548173ffffffffffffffffffffffffffffffffffffffff021916908373ffffffffffffffffffffffffffffffffffffffff1602179055506001905061343d565b60006133d47351efaf4c8b3c9afbd5ab9f4bbc82784ab6ef8faa61221a565b1115613438577351efaf4c8b3c9afbd5ab9f4bbc82784ab6ef8faa600260006101000a81548173ffffffffffffffffffffffffffffffffffffffff021916908373ffffffffffffffffffffffffffffffffffffffff1602179055506001905061343d565b600090505b90565b600080600190508284511461345457600080fd5b60008090505b838110156134e45784818151811061346e57fe5b602001015160f81c60f81b7effffffffffffffffffffffffffffffffffffffffffffffffffffffffffffff19168682602081106134a757fe5b1a60f81b7effffffffffffffffffffffffffffffffffffffffffffffffffffffffffffff1916146134d757600091505b808060010191505061345a565b50809150509392505050565b6000806000806000606060206040519080825280601f01601f19166020018201604052801561352e5781602001600182028038833980820191505090505b509050600060208960038151811061354257fe5b602001015160f81c60f81b60f81c60ff1603600401905061356889826020856000611e30565b9150606060206040519080825280601f01601f1916602001820160405280156135a05781602001600182028038833980820191505090505b5090506022820191506135dc8a60208c60018603815181106135be57fe5b602001015160f81c60f81b60f81c60ff160384016020846000611e30565b905060208301519450602081015193506135f98b601b8787613b60565b80975081985050508573ffffffffffffffffffffffffffffffffffffffff16898051906020012060001c73ffffffffffffffffffffffffffffffffffffffff16141561364f5760019750505050505050506136a7565b61365c8b601c8787613b60565b80975081985050508573ffffffffffffffffffffffffffffffffffffffff16898051906020012060001c73ffffffffffffffffffffffffffffffffffffffff16149750505050505050505b9392505050565b600080606060028560018601815181106136c457fe5b602001015160f81c60f81b60f81c60ff16016040519080825280601f01601f1916602001820160405280156137085781602001600182028038833980820191505090505b50905061371a85858351846000611e30565b506060604080519080825280601f01601f1916602001820160405280156137505781602001600182028038833980820191505090505b5090506137638660046040846000611e30565b50606060626040519080825280601f01601f19166020018201604052801561379a5781602001600182028038833980820191505090505b509050600160f81b816000815181106137af57fe5b60200101907effffffffffffffffffffffffffffffffffffffffffffffffffffffffffffff1916908160001a9053506137f087604188036041846001611e30565b5060606040518060400160405280602081526020017ffd94fa71bc0ba10d39d464d0d8f465efeef0a2764e3887fcc9df41ded20f505c815250905061383b8160006020856042611e30565b506138e46002836040518082805190602001908083835b602083106138755780518252602082019150602081019050602083039250613852565b6001836020036101000a038019825116818451168082178552505050505050905001915050602060405180830381855afa1580156138b7573d6000803e3d6000fd5b5050506040513d60208110156138cc57600080fd5b810190808051906020019092919050505085856134f0565b9450846138f957600095505050505050613ac0565b6060604051806060016040528060408152602001614046604091399050606060426040519080825280601f01601f19166020018201604052801561394c5781602001600182028038833980820191505090505b50905060fe60f81b8160008151811061396157fe5b60200101907effffffffffffffffffffffffffffffffffffffffffffffffffffffffffffff1916908160001a9053506139a08a60036041846001611e30565b50606060028b6045815181106139b257fe5b602001015160f81c60f81b60f81c60ff16016040519080825280601f01601f1916602001820160405280156139f65781602001600182028038833980820191505090505b509050613a098b60448351846000611e30565b50613ab26002836040518082805190602001908083835b60208310613a435780518252602082019150602081019050602083039250613a20565b6001836020036101000a038019825116818451168082178552505050505050905001915050602060405180830381855afa158015613a85573d6000803e3d6000fd5b5050506040513d6020811015613a9a57600080fd5b810190808051906020019092919050505082856134f0565b975087985050505050505050505b92915050565b6060613ad0613ba4565b613ad8613f54565b613ae481610400613bb0565b613aed81613bfa565b60008090505b8351811015613b2f57613b22848281518110613b0b57fe5b602002602001015183613c0890919063ffffffff16565b8080600101915050613af3565b50613b3981613c2d565b8060000151915050919050565b8060039080519060200190613b5c929190613f6e565b5050565b60008060008060405188815287602082015286604082015285606082015260208160808360006001610bb8f192508051915050818193509350505094509492505050565b60405180590338823950565b6000819050600060208281613bc157fe5b0614613bda5760208181613bd157fe5b06602003810190505b808360200181815250506040518084526000815281810160405250505050565b613c05816004613c3b565b50565b613c158260028351613c5c565b613c288183613d9c90919063ffffffff16565b505050565b613c38816007613c3b565b50565b613c58601f60058360ff16901b1783613e4790919063ffffffff16565b5050565b60178111613c8857613c838160058460ff16901b60ff161784613e4790919063ffffffff16565b613d97565b60ff8111613cc957613cad601860058460ff16901b1784613e4790919063ffffffff16565b613cc381600185613e879092919063ffffffff16565b50613d96565b61ffff8111613d0b57613cef601960058460ff16901b1784613e4790919063ffffffff16565b613d0581600285613e879092919063ffffffff16565b50613d95565b63ffffffff8111613d4f57613d33601a60058460ff16901b1784613e4790919063ffffffff16565b613d4981600485613e879092919063ffffffff16565b50613d94565b67ffffffffffffffff8111613d9357613d7b601b60058460ff16901b1784613e4790919063ffffffff16565b613d9181600885613e879092919063ffffffff16565b505b5b5b5b5b505050565b613da4613f54565b82602001518360000151518351011115613dd457613dd3836002613dcd86602001518651613eee565b02613f0a565b5b60008060008451905085518051602081830101945086518101825260208701935050505b60208110613e1b5781518352602083019250602082019150602081039050613df8565b60006001826020036101000a039050801983511681855116818117865250508694505050505092915050565b81602001516001836000015151011115613e6d57613e6c826002846020015102613f0a565b5b815180516020818301018381536001820183525050505050565b613e8f613f54565b836020015184600001515183011115613ebd57613ebc846002613eb6876020015186613eee565b02613f0a565b5b60006001836101000a0390508451805184818301018684198251161781528582018352505050849150509392505050565b600081831115613f0057829050613f04565b8190505b92915050565b606082600001519050613f1d8383613bb0565b613f278382613d9c565b50505050565b60405180608001604052806004905b6060815260200190600190039081613f3c5790505090565b604051806040016040528060608152602001600081525090565b828054600181600116156101000203166002900490600052602060002090601f016020900481019282601f10613faf57805160ff1916838001178555613fdd565b82800160010185558215613fdd579182015b82811115613fdc578251825591602001919060010190613fc1565b5b509050613fea9190613fee565b5090565b61401091905b8082111561400c576000816000905550600101613ff4565b5090565b9056fe50726f7661626c65207175657279207761732073656e742c207374616e64696e6720627920666f7220616e737765722e2e2e7fb956469c5c9b89840d55b43537e66a98dd4811ea0a27224272c2e5622911e8537a2f8e86a46baec82864e98dd01e9ccc2f8bc5dfc9cbe5a91a290498dd96e44e6f7420656e6f7567682066756e647320746f20706179206f75742e53686f756c642070617920746f20706c6179206669727374a265627a7a723158202977851e0aa044a460d0d17f4585aa5e6c1319fd64e3643b066f4e42680823e264736f6c63430005100032",
  "source": "import \"./Ownable.sol\";\r\nimport \"./provableAPI.sol\";\r\n\r\npragma solidity 0.5.16;\r\n\r\ncontract Flipcoin is Ownable, usingProvable {\r\n\r\n    uint256 constant NUM_RANDOM_BYTES_REQUESTED = 1;    \r\n    bytes32 queryId;\r\n    uint256 public latestNumber;\r\n\r\n    constructor() public {\r\n        provable_setProof(proofType_Ledger);\r\n    }\r\n\r\n    struct Bet {                                        \r\n        address payable player;                         \r\n        uint betValue;                                    \r\n        bool result;                                   \r\n    }\r\n\r\n    uint public contractBalance;\r\n\r\n    mapping(address => uint) public balances;\r\n    mapping (bytes32 => Bet) public betList; \r\n    mapping(address => bool) public waitingList;\r\n\r\n    // Events\r\n\r\n    event StartBetEvent(address player, uint betValue, bytes32 Id);\r\n    event EndBetEvent(address player, uint betValue, bytes32 Id, bool result);\r\n    event LogNewProvableQuery(string description);\r\n    event latestNumberEvent (uint256 latestNumber);\r\n\r\n    modifier costs(uint cost){\r\n        require(msg.value >= cost);\r\n        _;\r\n    }\r\n\r\n    function payToPlay() public payable costs(0.1 ether) {\r\n        require(msg.value != 0);\r\n        contractBalance += msg.value;\r\n    }\r\n\r\n    function bet() public payable costs(0.001 ether) {\r\n\r\n        //before to play requirements\r\n        require(msg.value <= contractBalance, \"Not enough funds to pay out.Should pay to play first\");\r\n\r\n        //player still waiting?\r\n        require(waitingList[msg.sender] == false);\r\n\r\n        // Step 1 //\r\n\r\n        //Player start to wait the result\r\n        waitingList[msg.sender] = true;\r\n\r\n        // Step 2 //\r\n\r\n        //ask oracle for random number\r\n        uint256 QUERY_EXECUTION_DELAY = 0;\r\n        uint256 GAS_FOR_CALLBACK = 200000;\r\n\r\n        queryId = provable_newRandomDSQuery(\r\n            QUERY_EXECUTION_DELAY,\r\n            NUM_RANDOM_BYTES_REQUESTED,\r\n            GAS_FOR_CALLBACK\r\n        );\r\n\r\n        //====> Step 3\r\n\r\n        // New Bet added to betList // waiting for query resolved\r\n\r\n        betList[queryId] = Bet(msg.sender,  msg.value, false);  \r\n\r\n        emit StartBetEvent(msg.sender, msg.value, queryId);\r\n        emit LogNewProvableQuery(\"Provable query was sent, standing by for answer...\");\r\n\r\n    }\r\n\r\n    function __callback(bytes32 _queryId,string memory _result, bytes memory _proof) public {\r\n        //Step 3\r\n        require(msg.sender == provable_cbAddress());\r\n        \r\n        if (provable_randomDS_proofVerify__returnCode(_queryId, _result, _proof) != 0) {\r\n            \r\n        } else {\r\n\r\n            uint256 randomNumber = uint256(keccak256(abi.encodePacked(_result))) % 2;\r\n\r\n            //Now we have the result //Betting is done //\r\n\r\n            latestNumber = randomNumber;\r\n\r\n            if(latestNumber == 0){\r\n                betList[_queryId].result = false; // LOST\r\n                contractBalance += betList[_queryId].betValue;\r\n            }\r\n\r\n            else if(latestNumber == 1){\r\n                betList[_queryId].result = true; // WIN\r\n                contractBalance -= betList[_queryId].betValue*2;\r\n                balances[betList[_queryId].player] += betList[_queryId].betValue * 2;\r\n            }\r\n\r\n        }\r\n\r\n        //Player stop waiting\r\n        waitingList[betList[_queryId].player] = false;\r\n\r\n        //Emit event to front end\r\n        emit latestNumberEvent(latestNumber);\r\n        emit EndBetEvent(betList[_queryId].player,betList[_queryId].betValue, _queryId, betList[_queryId].result);\r\n    }\r\n\r\n    function withDraw() public {\r\n        require(waitingList[msg.sender] == false, \"Still waiting...\");\r\n        require(balances[msg.sender] > 0, \"No funds to withdraw\");\r\n        uint balanceToTransfer = balances[msg.sender];\r\n        balances[msg.sender] = 0;\r\n        msg.sender.transfer(balanceToTransfer);\r\n   }\r\n\r\n   function withdrawAll() public onlyOwner returns(uint) {\r\n        require(waitingList[msg.sender] == false);\r\n        require(contractBalance > 0, \"No funds to withdraw\");\r\n        uint toTransfer = contractBalance;\r\n        contractBalance = 0;\r\n        msg.sender.transfer(toTransfer);\r\n        return toTransfer;\r\n   }\r\n\r\n}",
  "sourcePath": "D:\\Solidity - IvanOntechAcademy\\FlipDapp2.0\\contracts\\Flipcoin.sol",
  "compiler": {
    "name": "solc",
    "version": "0.5.16+commit.9c3226ce.Emscripten.clang"
  },
  "schemaVersion": "3.0.23",
  "updatedAt": "2020-11-02T17:33:39.166Z",
  "networkType": "ethereum",
  "devdoc": {
    "methods": {
      "__callback(bytes32,string)": {
        "details": "The following `__callback` functions are just placeholders ideally     meant to be defined in child contract when proofs are used.     The function bodies simply silence compiler warnings."
      }
    }
  },
  "userdoc": {
    "methods": {}
  }
}